{
  "_format": "hh-sol-artifact-1",
  "contractName": "TheWinTK",
  "sourceName": "contracts/TheWinTK.sol",
  "abi": [
    {
      "inputs": [],
      "stateMutability": "nonpayable",
      "type": "constructor"
    },
    {
      "anonymous": false,
      "inputs": [
        {
          "indexed": true,
          "internalType": "address",
          "name": "owner",
          "type": "address"
        },
        {
          "indexed": true,
          "internalType": "address",
          "name": "spender",
          "type": "address"
        },
        {
          "indexed": false,
          "internalType": "uint256",
          "name": "value",
          "type": "uint256"
        }
      ],
      "name": "Approval",
      "type": "event"
    },
    {
      "anonymous": false,
      "inputs": [
        {
          "indexed": false,
          "internalType": "address",
          "name": "_address",
          "type": "address"
        },
        {
          "indexed": false,
          "internalType": "bool",
          "name": "isBlocked",
          "type": "bool"
        }
      ],
      "name": "BlackList",
      "type": "event"
    },
    {
      "anonymous": false,
      "inputs": [
        {
          "indexed": true,
          "internalType": "address",
          "name": "previousOwner",
          "type": "address"
        },
        {
          "indexed": true,
          "internalType": "address",
          "name": "newOwner",
          "type": "address"
        }
      ],
      "name": "OwnershipTransferred",
      "type": "event"
    },
    {
      "anonymous": false,
      "inputs": [
        {
          "indexed": true,
          "internalType": "address",
          "name": "from",
          "type": "address"
        },
        {
          "indexed": true,
          "internalType": "address",
          "name": "to",
          "type": "address"
        },
        {
          "indexed": false,
          "internalType": "uint256",
          "name": "value",
          "type": "uint256"
        }
      ],
      "name": "Transfer",
      "type": "event"
    },
    {
      "inputs": [
        {
          "internalType": "address",
          "name": "_address",
          "type": "address"
        }
      ],
      "name": "addToBlackList",
      "outputs": [],
      "stateMutability": "nonpayable",
      "type": "function"
    },
    {
      "inputs": [
        {
          "internalType": "address",
          "name": "owner",
          "type": "address"
        },
        {
          "internalType": "address",
          "name": "spender",
          "type": "address"
        }
      ],
      "name": "allowance",
      "outputs": [
        {
          "internalType": "uint256",
          "name": "",
          "type": "uint256"
        }
      ],
      "stateMutability": "view",
      "type": "function"
    },
    {
      "inputs": [
        {
          "internalType": "address",
          "name": "spender",
          "type": "address"
        },
        {
          "internalType": "uint256",
          "name": "amount",
          "type": "uint256"
        }
      ],
      "name": "approve",
      "outputs": [
        {
          "internalType": "bool",
          "name": "",
          "type": "bool"
        }
      ],
      "stateMutability": "nonpayable",
      "type": "function"
    },
    {
      "inputs": [
        {
          "internalType": "address",
          "name": "account",
          "type": "address"
        }
      ],
      "name": "balanceOf",
      "outputs": [
        {
          "internalType": "uint256",
          "name": "",
          "type": "uint256"
        }
      ],
      "stateMutability": "view",
      "type": "function"
    },
    {
      "inputs": [
        {
          "internalType": "address",
          "name": "_from",
          "type": "address"
        },
        {
          "internalType": "uint256",
          "name": "_amount",
          "type": "uint256"
        }
      ],
      "name": "burn",
      "outputs": [],
      "stateMutability": "nonpayable",
      "type": "function"
    },
    {
      "inputs": [],
      "name": "decimals",
      "outputs": [
        {
          "internalType": "uint8",
          "name": "",
          "type": "uint8"
        }
      ],
      "stateMutability": "view",
      "type": "function"
    },
    {
      "inputs": [
        {
          "internalType": "address",
          "name": "spender",
          "type": "address"
        },
        {
          "internalType": "uint256",
          "name": "subtractedValue",
          "type": "uint256"
        }
      ],
      "name": "decreaseAllowance",
      "outputs": [
        {
          "internalType": "bool",
          "name": "",
          "type": "bool"
        }
      ],
      "stateMutability": "nonpayable",
      "type": "function"
    },
    {
      "inputs": [
        {
          "internalType": "address",
          "name": "spender",
          "type": "address"
        },
        {
          "internalType": "uint256",
          "name": "addedValue",
          "type": "uint256"
        }
      ],
      "name": "increaseAllowance",
      "outputs": [
        {
          "internalType": "bool",
          "name": "",
          "type": "bool"
        }
      ],
      "stateMutability": "nonpayable",
      "type": "function"
    },
    {
      "inputs": [
        {
          "internalType": "address",
          "name": "_address",
          "type": "address"
        }
      ],
      "name": "isInBlackList",
      "outputs": [
        {
          "internalType": "bool",
          "name": "",
          "type": "bool"
        }
      ],
      "stateMutability": "view",
      "type": "function"
    },
    {
      "inputs": [
        {
          "internalType": "address",
          "name": "_to",
          "type": "address"
        },
        {
          "internalType": "uint256",
          "name": "_amount",
          "type": "uint256"
        }
      ],
      "name": "mint",
      "outputs": [],
      "stateMutability": "nonpayable",
      "type": "function"
    },
    {
      "inputs": [],
      "name": "name",
      "outputs": [
        {
          "internalType": "string",
          "name": "",
          "type": "string"
        }
      ],
      "stateMutability": "view",
      "type": "function"
    },
    {
      "inputs": [],
      "name": "owner",
      "outputs": [
        {
          "internalType": "address",
          "name": "",
          "type": "address"
        }
      ],
      "stateMutability": "view",
      "type": "function"
    },
    {
      "inputs": [
        {
          "internalType": "address",
          "name": "_address",
          "type": "address"
        }
      ],
      "name": "removeFromBlackList",
      "outputs": [],
      "stateMutability": "nonpayable",
      "type": "function"
    },
    {
      "inputs": [],
      "name": "renounceOwnership",
      "outputs": [],
      "stateMutability": "nonpayable",
      "type": "function"
    },
    {
      "inputs": [],
      "name": "symbol",
      "outputs": [
        {
          "internalType": "string",
          "name": "",
          "type": "string"
        }
      ],
      "stateMutability": "view",
      "type": "function"
    },
    {
      "inputs": [],
      "name": "totalSupply",
      "outputs": [
        {
          "internalType": "uint256",
          "name": "",
          "type": "uint256"
        }
      ],
      "stateMutability": "view",
      "type": "function"
    },
    {
      "inputs": [
        {
          "internalType": "address",
          "name": "to",
          "type": "address"
        },
        {
          "internalType": "uint256",
          "name": "amount",
          "type": "uint256"
        }
      ],
      "name": "transfer",
      "outputs": [
        {
          "internalType": "bool",
          "name": "",
          "type": "bool"
        }
      ],
      "stateMutability": "nonpayable",
      "type": "function"
    },
    {
      "inputs": [
        {
          "internalType": "address",
          "name": "from",
          "type": "address"
        },
        {
          "internalType": "address",
          "name": "to",
          "type": "address"
        },
        {
          "internalType": "uint256",
          "name": "amount",
          "type": "uint256"
        }
      ],
      "name": "transferFrom",
      "outputs": [
        {
          "internalType": "bool",
          "name": "",
          "type": "bool"
        }
      ],
      "stateMutability": "nonpayable",
      "type": "function"
    },
    {
      "inputs": [
        {
          "internalType": "address",
          "name": "newOwner",
          "type": "address"
        }
      ],
      "name": "transferOwnership",
      "outputs": [],
      "stateMutability": "nonpayable",
      "type": "function"
    }
  ],
  "bytecode": "0x60806040523480156200001157600080fd5b506040518060400160405280600881526020017f54686557696e544b0000000000000000000000000000000000000000000000008152506040518060400160405280600381526020017f54544b0000000000000000000000000000000000000000000000000000000000815250816003908051906020019062000096929190620003cf565b508060049080519060200190620000af929190620003cf565b505050620000d2620000c66200017560201b60201c565b6200017d60201b60201c565b620000e26200017560201b60201c565b600760006101000a81548173ffffffffffffffffffffffffffffffffffffffff021916908373ffffffffffffffffffffffffffffffffffffffff1602179055506200016f620001366200017560201b60201c565b620001466200024360201b60201c565b600a620001549190620005bf565b612710620001639190620006fc565b6200024c60201b60201c565b6200083e565b600033905090565b6000600560009054906101000a900473ffffffffffffffffffffffffffffffffffffffff16905081600560006101000a81548173ffffffffffffffffffffffffffffffffffffffff021916908373ffffffffffffffffffffffffffffffffffffffff1602179055508173ffffffffffffffffffffffffffffffffffffffff168173ffffffffffffffffffffffffffffffffffffffff167f8be0079c531659141344cd1fd0a4f28419497f9722a3daafe3b4186f6b6457e060405160405180910390a35050565b60006012905090565b600073ffffffffffffffffffffffffffffffffffffffff168273ffffffffffffffffffffffffffffffffffffffff161415620002bf576040517f08c379a0000000000000000000000000000000000000000000000000000000008152600401620002b690620004b7565b60405180910390fd5b620002d360008383620003c560201b60201c565b8060026000828254620002e7919062000507565b92505081905550806000808473ffffffffffffffffffffffffffffffffffffffff1673ffffffffffffffffffffffffffffffffffffffff16815260200190815260200160002060008282546200033e919062000507565b925050819055508173ffffffffffffffffffffffffffffffffffffffff16600073ffffffffffffffffffffffffffffffffffffffff167fddf252ad1be2c89b69c2b068fc378daa952ba7f163c4a11628f55a4df523b3ef83604051620003a59190620004d9565b60405180910390a3620003c160008383620003ca60201b60201c565b5050565b505050565b505050565b828054620003dd9062000774565b90600052602060002090601f0160209004810192826200040157600085556200044d565b82601f106200041c57805160ff19168380011785556200044d565b828001600101855582156200044d579182015b828111156200044c5782518255916020019190600101906200042f565b5b5090506200045c919062000460565b5090565b5b808211156200047b57600081600090555060010162000461565b5090565b60006200048e601f83620004f6565b91506200049b8262000815565b602082019050919050565b620004b1816200075d565b82525050565b60006020820190508181036000830152620004d2816200047f565b9050919050565b6000602082019050620004f06000830184620004a6565b92915050565b600082825260208201905092915050565b600062000514826200075d565b915062000521836200075d565b9250827fffffffffffffffffffffffffffffffffffffffffffffffffffffffffffffffff03821115620005595762000558620007aa565b5b828201905092915050565b6000808291508390505b6001851115620005b6578086048111156200058e576200058d620007aa565b5b60018516156200059e5780820291505b8081029050620005ae8562000808565b94506200056e565b94509492505050565b6000620005cc826200075d565b9150620005d98362000767565b9250620006087fffffffffffffffffffffffffffffffffffffffffffffffffffffffffffffffff848462000610565b905092915050565b600082620006225760019050620006f5565b81620006325760009050620006f5565b81600181146200064b576002811462000656576200068c565b6001915050620006f5565b60ff8411156200066b576200066a620007aa565b5b8360020a915084821115620006855762000684620007aa565b5b50620006f5565b5060208310610133831016604e8410600b8410161715620006c65782820a905083811115620006c057620006bf620007aa565b5b620006f5565b620006d5848484600162000564565b92509050818404811115620006ef57620006ee620007aa565b5b81810290505b9392505050565b600062000709826200075d565b915062000716836200075d565b9250817fffffffffffffffffffffffffffffffffffffffffffffffffffffffffffffffff0483118215151615620007525762000751620007aa565b5b828202905092915050565b6000819050919050565b600060ff82169050919050565b600060028204905060018216806200078d57607f821691505b60208210811415620007a457620007a3620007d9565b5b50919050565b7f4e487b7100000000000000000000000000000000000000000000000000000000600052601160045260246000fd5b7f4e487b7100000000000000000000000000000000000000000000000000000000600052602260045260246000fd5b60008160011c9050919050565b7f45524332303a206d696e7420746f20746865207a65726f206164647265737300600082015250565b61295c806200084e6000396000f3fe608060405234801561001057600080fd5b50600436106101215760003560e01c806370a08231116100ad5780639dc29fac116100715780639dc29fac1461030a578063a457c2d714610326578063a9059cbb14610356578063dd62ed3e14610386578063f2fde38b146103b657610121565b806370a082311461026457806370b2973e14610294578063715018a6146102c45780638da5cb5b146102ce57806395d89b41146102ec57610121565b8063313ce567116100f4578063313ce567146101c257806339509351146101e057806340c10f1914610210578063417c73a71461022c5780634a49ac4c1461024857610121565b806306fdde0314610126578063095ea7b31461014457806318160ddd1461017457806323b872dd14610192575b600080fd5b61012e6103d2565b60405161013b919061204a565b60405180910390f35b61015e60048036038101906101599190611d2d565b610464565b60405161016b919061202f565b60405180910390f35b61017c610487565b604051610189919061227c565b60405180910390f35b6101ac60048036038101906101a79190611cde565b610491565b6040516101b9919061202f565b60405180910390f35b6101ca6104c0565b6040516101d79190612297565b60405180910390f35b6101fa60048036038101906101f59190611d2d565b6104c9565b604051610207919061202f565b60405180910390f35b61022a60048036038101906102259190611d2d565b610573565b005b61024660048036038101906102419190611c79565b610691565b005b610262600480360381019061025d9190611c79565b6108f6565b005b61027e60048036038101906102799190611c79565b610ade565b60405161028b919061227c565b60405180910390f35b6102ae60048036038101906102a99190611c79565b610b26565b6040516102bb919061202f565b60405180910390f35b6102cc610b7c565b005b6102d6610c04565b6040516102e39190611feb565b60405180910390f35b6102f4610c2e565b604051610301919061204a565b60405180910390f35b610324600480360381019061031f9190611d2d565b610cc0565b005b610340600480360381019061033b9190611d2d565b610dde565b60405161034d919061202f565b60405180910390f35b610370600480360381019061036b9190611d2d565b610ec8565b60405161037d919061202f565b60405180910390f35b6103a0600480360381019061039b9190611ca2565b610ff6565b6040516103ad919061227c565b60405180910390f35b6103d060048036038101906103cb9190611c79565b61107d565b005b6060600380546103e19061246b565b80601f016020809104026020016040519081016040528092919081815260200182805461040d9061246b565b801561045a5780601f1061042f5761010080835404028352916020019161045a565b820191906000526020600020905b81548152906001019060200180831161043d57829003601f168201915b5050505050905090565b60008061046f611175565b905061047c81858561117d565b600191505092915050565b6000600254905090565b60008061049c611175565b90506104a9858285611348565b6104b48585856113d4565b60019150509392505050565b60006012905090565b6000806104d4611175565b9050610568818585600160008673ffffffffffffffffffffffffffffffffffffffff1673ffffffffffffffffffffffffffffffffffffffff16815260200190815260200160002060008973ffffffffffffffffffffffffffffffffffffffff1673ffffffffffffffffffffffffffffffffffffffff1681526020019081526020016000205461056391906122ce565b61117d565b600191505092915050565b6006600061057f611175565b73ffffffffffffffffffffffffffffffffffffffff1673ffffffffffffffffffffffffffffffffffffffff16815260200190815260200160002060009054906101000a900460ff1615610607576040517f08c379a00000000000000000000000000000000000000000000000000000000081526004016105fe9061219c565b60405180910390fd5b61060f611175565b73ffffffffffffffffffffffffffffffffffffffff1661062d610c04565b73ffffffffffffffffffffffffffffffffffffffff1614610683576040517f08c379a000000000000000000000000000000000000000000000000000000000815260040161067a9061217c565b60405180910390fd5b61068d8282611655565b5050565b610699611175565b73ffffffffffffffffffffffffffffffffffffffff166106b7610c04565b73ffffffffffffffffffffffffffffffffffffffff161461070d576040517f08c379a00000000000000000000000000000000000000000000000000000000081526004016107049061217c565b60405180910390fd5b61074b6040518060400160405280600e81526020017f6265666f726520726571756972650000000000000000000000000000000000008152506117b5565b600660008273ffffffffffffffffffffffffffffffffffffffff1673ffffffffffffffffffffffffffffffffffffffff16815260200190815260200160002060009054906101000a900460ff16156107d8576040517f08c379a00000000000000000000000000000000000000000000000000000000081526004016107cf9061221c565b60405180910390fd5b6108166040518060400160405280601181526020017f61646420746f20626c61636b206c6973740000000000000000000000000000008152506117b5565b6001600660008373ffffffffffffffffffffffffffffffffffffffff1673ffffffffffffffffffffffffffffffffffffffff16815260200190815260200160002060006101000a81548160ff0219169083151502179055507f0d995f92edc73ef0f6a26f998e26d73cf24a90c903a3339c7835457e2c96756581600660008473ffffffffffffffffffffffffffffffffffffffff1673ffffffffffffffffffffffffffffffffffffffff16815260200190815260200160002060009054906101000a900460ff166040516108eb929190612006565b60405180910390a150565b6108fe611175565b73ffffffffffffffffffffffffffffffffffffffff1661091c610c04565b73ffffffffffffffffffffffffffffffffffffffff1614610972576040517f08c379a00000000000000000000000000000000000000000000000000000000081526004016109699061217c565b60405180910390fd5b600660008273ffffffffffffffffffffffffffffffffffffffff1673ffffffffffffffffffffffffffffffffffffffff16815260200190815260200160002060009054906101000a900460ff166109fe576040517f08c379a00000000000000000000000000000000000000000000000000000000081526004016109f59061209c565b60405180910390fd5b6000600660008373ffffffffffffffffffffffffffffffffffffffff1673ffffffffffffffffffffffffffffffffffffffff16815260200190815260200160002060006101000a81548160ff0219169083151502179055507f0d995f92edc73ef0f6a26f998e26d73cf24a90c903a3339c7835457e2c96756581600660008473ffffffffffffffffffffffffffffffffffffffff1673ffffffffffffffffffffffffffffffffffffffff16815260200190815260200160002060009054906101000a900460ff16604051610ad3929190612006565b60405180910390a150565b60008060008373ffffffffffffffffffffffffffffffffffffffff1673ffffffffffffffffffffffffffffffffffffffff168152602001908152602001600020549050919050565b6000600660008373ffffffffffffffffffffffffffffffffffffffff1673ffffffffffffffffffffffffffffffffffffffff16815260200190815260200160002060009054906101000a900460ff169050919050565b610b84611175565b73ffffffffffffffffffffffffffffffffffffffff16610ba2610c04565b73ffffffffffffffffffffffffffffffffffffffff1614610bf8576040517f08c379a0000000000000000000000000000000000000000000000000000000008152600401610bef9061217c565b60405180910390fd5b610c02600061184e565b565b6000600560009054906101000a900473ffffffffffffffffffffffffffffffffffffffff16905090565b606060048054610c3d9061246b565b80601f0160208091040260200160405190810160405280929190818152602001828054610c699061246b565b8015610cb65780601f10610c8b57610100808354040283529160200191610cb6565b820191906000526020600020905b815481529060010190602001808311610c9957829003601f168201915b5050505050905090565b60066000610ccc611175565b73ffffffffffffffffffffffffffffffffffffffff1673ffffffffffffffffffffffffffffffffffffffff16815260200190815260200160002060009054906101000a900460ff1615610d54576040517f08c379a0000000000000000000000000000000000000000000000000000000008152600401610d4b9061219c565b60405180910390fd5b610d5c611175565b73ffffffffffffffffffffffffffffffffffffffff16610d7a610c04565b73ffffffffffffffffffffffffffffffffffffffff1614610dd0576040517f08c379a0000000000000000000000000000000000000000000000000000000008152600401610dc79061217c565b60405180910390fd5b610dda8282611914565b5050565b600080610de9611175565b90506000600160008373ffffffffffffffffffffffffffffffffffffffff1673ffffffffffffffffffffffffffffffffffffffff16815260200190815260200160002060008673ffffffffffffffffffffffffffffffffffffffff1673ffffffffffffffffffffffffffffffffffffffff16815260200190815260200160002054905083811015610eaf576040517f08c379a0000000000000000000000000000000000000000000000000000000008152600401610ea69061223c565b60405180910390fd5b610ebc828686840361117d565b60019250505092915050565b600060066000610ed6611175565b73ffffffffffffffffffffffffffffffffffffffff1673ffffffffffffffffffffffffffffffffffffffff16815260200190815260200160002060009054906101000a900460ff1615610f5e576040517f08c379a0000000000000000000000000000000000000000000000000000000008152600401610f559061219c565b60405180910390fd5b610f9d6040518060400160405280600a81526020017f616d6f756e743a2025730000000000000000000000000000000000000000000081525083611aeb565b6000610fc66064610fb8600586611b8790919063ffffffff16565b611b9d90919063ffffffff16565b9050610fd181611bb3565b610fed84610fe88386611be390919063ffffffff16565b611bf9565b91505092915050565b6000600160008473ffffffffffffffffffffffffffffffffffffffff1673ffffffffffffffffffffffffffffffffffffffff16815260200190815260200160002060008373ffffffffffffffffffffffffffffffffffffffff1673ffffffffffffffffffffffffffffffffffffffff16815260200190815260200160002054905092915050565b611085611175565b73ffffffffffffffffffffffffffffffffffffffff166110a3610c04565b73ffffffffffffffffffffffffffffffffffffffff16146110f9576040517f08c379a00000000000000000000000000000000000000000000000000000000081526004016110f09061217c565b60405180910390fd5b600073ffffffffffffffffffffffffffffffffffffffff168173ffffffffffffffffffffffffffffffffffffffff161415611169576040517f08c379a0000000000000000000000000000000000000000000000000000000008152600401611160906120fc565b60405180910390fd5b6111728161184e565b50565b600033905090565b600073ffffffffffffffffffffffffffffffffffffffff168373ffffffffffffffffffffffffffffffffffffffff1614156111ed576040517f08c379a00000000000000000000000000000000000000000000000000000000081526004016111e4906121fc565b60405180910390fd5b600073ffffffffffffffffffffffffffffffffffffffff168273ffffffffffffffffffffffffffffffffffffffff16141561125d576040517f08c379a00000000000000000000000000000000000000000000000000000000081526004016112549061211c565b60405180910390fd5b80600160008573ffffffffffffffffffffffffffffffffffffffff1673ffffffffffffffffffffffffffffffffffffffff16815260200190815260200160002060008473ffffffffffffffffffffffffffffffffffffffff1673ffffffffffffffffffffffffffffffffffffffff168152602001908152602001600020819055508173ffffffffffffffffffffffffffffffffffffffff168373ffffffffffffffffffffffffffffffffffffffff167f8c5be1e5ebec7d5bd14f71427d1e84f3dd0314c0f7b2291e5b200ac8c7c3b9258360405161133b919061227c565b60405180910390a3505050565b60006113548484610ff6565b90507fffffffffffffffffffffffffffffffffffffffffffffffffffffffffffffffff81146113ce57818110156113c0576040517f08c379a00000000000000000000000000000000000000000000000000000000081526004016113b79061213c565b60405180910390fd5b6113cd848484840361117d565b5b50505050565b600073ffffffffffffffffffffffffffffffffffffffff168373ffffffffffffffffffffffffffffffffffffffff161415611444576040517f08c379a000000000000000000000000000000000000000000000000000000000815260040161143b906121dc565b60405180910390fd5b600073ffffffffffffffffffffffffffffffffffffffff168273ffffffffffffffffffffffffffffffffffffffff1614156114b4576040517f08c379a00000000000000000000000000000000000000000000000000000000081526004016114ab906120bc565b60405180910390fd5b6114bf838383611c1c565b60008060008573ffffffffffffffffffffffffffffffffffffffff1673ffffffffffffffffffffffffffffffffffffffff16815260200190815260200160002054905081811015611545576040517f08c379a000000000000000000000000000000000000000000000000000000000815260040161153c9061215c565b60405180910390fd5b8181036000808673ffffffffffffffffffffffffffffffffffffffff1673ffffffffffffffffffffffffffffffffffffffff16815260200190815260200160002081905550816000808573ffffffffffffffffffffffffffffffffffffffff1673ffffffffffffffffffffffffffffffffffffffff16815260200190815260200160002060008282546115d891906122ce565b925050819055508273ffffffffffffffffffffffffffffffffffffffff168473ffffffffffffffffffffffffffffffffffffffff167fddf252ad1be2c89b69c2b068fc378daa952ba7f163c4a11628f55a4df523b3ef8460405161163c919061227c565b60405180910390a361164f848484611c21565b50505050565b600073ffffffffffffffffffffffffffffffffffffffff168273ffffffffffffffffffffffffffffffffffffffff1614156116c5576040517f08c379a00000000000000000000000000000000000000000000000000000000081526004016116bc9061225c565b60405180910390fd5b6116d160008383611c1c565b80600260008282546116e391906122ce565b92505081905550806000808473ffffffffffffffffffffffffffffffffffffffff1673ffffffffffffffffffffffffffffffffffffffff168152602001908152602001600020600082825461173891906122ce565b925050819055508173ffffffffffffffffffffffffffffffffffffffff16600073ffffffffffffffffffffffffffffffffffffffff167fddf252ad1be2c89b69c2b068fc378daa952ba7f163c4a11628f55a4df523b3ef8360405161179d919061227c565b60405180910390a36117b160008383611c21565b5050565b61184b816040516024016117c9919061204a565b6040516020818303038152906040527f41304fac000000000000000000000000000000000000000000000000000000007bffffffffffffffffffffffffffffffffffffffffffffffffffffffff19166020820180517bffffffffffffffffffffffffffffffffffffffffffffffffffffffff8381831617835250505050611c26565b50565b6000600560009054906101000a900473ffffffffffffffffffffffffffffffffffffffff16905081600560006101000a81548173ffffffffffffffffffffffffffffffffffffffff021916908373ffffffffffffffffffffffffffffffffffffffff1602179055508173ffffffffffffffffffffffffffffffffffffffff168173ffffffffffffffffffffffffffffffffffffffff167f8be0079c531659141344cd1fd0a4f28419497f9722a3daafe3b4186f6b6457e060405160405180910390a35050565b600073ffffffffffffffffffffffffffffffffffffffff168273ffffffffffffffffffffffffffffffffffffffff161415611984576040517f08c379a000000000000000000000000000000000000000000000000000000000815260040161197b906121bc565b60405180910390fd5b61199082600083611c1c565b60008060008473ffffffffffffffffffffffffffffffffffffffff1673ffffffffffffffffffffffffffffffffffffffff16815260200190815260200160002054905081811015611a16576040517f08c379a0000000000000000000000000000000000000000000000000000000008152600401611a0d906120dc565b60405180910390fd5b8181036000808573ffffffffffffffffffffffffffffffffffffffff1673ffffffffffffffffffffffffffffffffffffffff168152602001908152602001600020819055508160026000828254611a6d91906123af565b92505081905550600073ffffffffffffffffffffffffffffffffffffffff168373ffffffffffffffffffffffffffffffffffffffff167fddf252ad1be2c89b69c2b068fc378daa952ba7f163c4a11628f55a4df523b3ef84604051611ad2919061227c565b60405180910390a3611ae683600084611c21565b505050565b611b838282604051602401611b0192919061206c565b6040516020818303038152906040527f9710a9d0000000000000000000000000000000000000000000000000000000007bffffffffffffffffffffffffffffffffffffffffffffffffffffffff19166020820180517bffffffffffffffffffffffffffffffffffffffffffffffffffffffff8381831617835250505050611c26565b5050565b60008183611b959190612355565b905092915050565b60008183611bab9190612324565b905092915050565b611bdf600760009054906101000a900473ffffffffffffffffffffffffffffffffffffffff1682611bf9565b5050565b60008183611bf191906123af565b905092915050565b600080611c04611175565b9050611c118185856113d4565b600191505092915050565b505050565b505050565b60008151905060006a636f6e736f6c652e6c6f679050602083016000808483855afa5050505050565b600081359050611c5e816128f8565b92915050565b600081359050611c738161290f565b92915050565b600060208284031215611c8b57600080fd5b6000611c9984828501611c4f565b91505092915050565b60008060408385031215611cb557600080fd5b6000611cc385828601611c4f565b9250506020611cd485828601611c4f565b9150509250929050565b600080600060608486031215611cf357600080fd5b6000611d0186828701611c4f565b9350506020611d1286828701611c4f565b9250506040611d2386828701611c64565b9150509250925092565b60008060408385031215611d4057600080fd5b6000611d4e85828601611c4f565b9250506020611d5f85828601611c64565b9150509250929050565b611d72816123e3565b82525050565b611d81816123f5565b82525050565b6000611d92826122b2565b611d9c81856122bd565b9350611dac818560208601612438565b611db58161252a565b840191505092915050565b6000611dcd6014836122bd565b9150611dd88261253b565b602082019050919050565b6000611df06023836122bd565b9150611dfb82612564565b604082019050919050565b6000611e136022836122bd565b9150611e1e826125b3565b604082019050919050565b6000611e366026836122bd565b9150611e4182612602565b604082019050919050565b6000611e596022836122bd565b9150611e6482612651565b604082019050919050565b6000611e7c601d836122bd565b9150611e87826126a0565b602082019050919050565b6000611e9f6026836122bd565b9150611eaa826126c9565b604082019050919050565b6000611ec26020836122bd565b9150611ecd82612718565b602082019050919050565b6000611ee56016836122bd565b9150611ef082612741565b602082019050919050565b6000611f086021836122bd565b9150611f138261276a565b604082019050919050565b6000611f2b6025836122bd565b9150611f36826127b9565b604082019050919050565b6000611f4e6024836122bd565b9150611f5982612808565b604082019050919050565b6000611f716014836122bd565b9150611f7c82612857565b602082019050919050565b6000611f946025836122bd565b9150611f9f82612880565b604082019050919050565b6000611fb7601f836122bd565b9150611fc2826128cf565b602082019050919050565b611fd681612421565b82525050565b611fe58161242b565b82525050565b60006020820190506120006000830184611d69565b92915050565b600060408201905061201b6000830185611d69565b6120286020830184611d78565b9392505050565b60006020820190506120446000830184611d78565b92915050565b600060208201905081810360008301526120648184611d87565b905092915050565b600060408201905081810360008301526120868185611d87565b90506120956020830184611fcd565b9392505050565b600060208201905081810360008301526120b581611dc0565b9050919050565b600060208201905081810360008301526120d581611de3565b9050919050565b600060208201905081810360008301526120f581611e06565b9050919050565b6000602082019050818103600083015261211581611e29565b9050919050565b6000602082019050818103600083015261213581611e4c565b9050919050565b6000602082019050818103600083015261215581611e6f565b9050919050565b6000602082019050818103600083015261217581611e92565b9050919050565b6000602082019050818103600083015261219581611eb5565b9050919050565b600060208201905081810360008301526121b581611ed8565b9050919050565b600060208201905081810360008301526121d581611efb565b9050919050565b600060208201905081810360008301526121f581611f1e565b9050919050565b6000602082019050818103600083015261221581611f41565b9050919050565b6000602082019050818103600083015261223581611f64565b9050919050565b6000602082019050818103600083015261225581611f87565b9050919050565b6000602082019050818103600083015261227581611faa565b9050919050565b60006020820190506122916000830184611fcd565b92915050565b60006020820190506122ac6000830184611fdc565b92915050565b600081519050919050565b600082825260208201905092915050565b60006122d982612421565b91506122e483612421565b9250827fffffffffffffffffffffffffffffffffffffffffffffffffffffffffffffffff038211156123195761231861249d565b5b828201905092915050565b600061232f82612421565b915061233a83612421565b92508261234a576123496124cc565b5b828204905092915050565b600061236082612421565b915061236b83612421565b9250817fffffffffffffffffffffffffffffffffffffffffffffffffffffffffffffffff04831182151516156123a4576123a361249d565b5b828202905092915050565b60006123ba82612421565b91506123c583612421565b9250828210156123d8576123d761249d565b5b828203905092915050565b60006123ee82612401565b9050919050565b60008115159050919050565b600073ffffffffffffffffffffffffffffffffffffffff82169050919050565b6000819050919050565b600060ff82169050919050565b60005b8381101561245657808201518184015260208101905061243b565b83811115612465576000848401525b50505050565b6000600282049050600182168061248357607f821691505b60208210811415612497576124966124fb565b5b50919050565b7f4e487b7100000000000000000000000000000000000000000000000000000000600052601160045260246000fd5b7f4e487b7100000000000000000000000000000000000000000000000000000000600052601260045260246000fd5b7f4e487b7100000000000000000000000000000000000000000000000000000000600052602260045260246000fd5b6000601f19601f8301169050919050565b7f616c726561647920696e2077686974656c697374000000000000000000000000600082015250565b7f45524332303a207472616e7366657220746f20746865207a65726f206164647260008201527f6573730000000000000000000000000000000000000000000000000000000000602082015250565b7f45524332303a206275726e20616d6f756e7420657863656564732062616c616e60008201527f6365000000000000000000000000000000000000000000000000000000000000602082015250565b7f4f776e61626c653a206e6577206f776e657220697320746865207a65726f206160008201527f6464726573730000000000000000000000000000000000000000000000000000602082015250565b7f45524332303a20617070726f766520746f20746865207a65726f20616464726560008201527f7373000000000000000000000000000000000000000000000000000000000000602082015250565b7f45524332303a20696e73756666696369656e7420616c6c6f77616e6365000000600082015250565b7f45524332303a207472616e7366657220616d6f756e742065786365656473206260008201527f616c616e63650000000000000000000000000000000000000000000000000000602082015250565b7f4f776e61626c653a2063616c6c6572206973206e6f7420746865206f776e6572600082015250565b7f73656e64657220697320696e20626c61636b6c69737400000000000000000000600082015250565b7f45524332303a206275726e2066726f6d20746865207a65726f2061646472657360008201527f7300000000000000000000000000000000000000000000000000000000000000602082015250565b7f45524332303a207472616e736665722066726f6d20746865207a65726f20616460008201527f6472657373000000000000000000000000000000000000000000000000000000602082015250565b7f45524332303a20617070726f76652066726f6d20746865207a65726f2061646460008201527f7265737300000000000000000000000000000000000000000000000000000000602082015250565b7f616c726561647920696e20626c61636b6c697374000000000000000000000000600082015250565b7f45524332303a2064656372656173656420616c6c6f77616e63652062656c6f7760008201527f207a65726f000000000000000000000000000000000000000000000000000000602082015250565b7f45524332303a206d696e7420746f20746865207a65726f206164647265737300600082015250565b612901816123e3565b811461290c57600080fd5b50565b61291881612421565b811461292357600080fd5b5056fea2646970667358221220ec7c18bd452584602cde5772466602c33d99e70d50143a8edcacdd6321b6fd4e64736f6c63430008040033",
  "linkReferences": {},
  "deployedLinkReferences": {}
}